{
  "_format": "hh-sol-artifact-1",
  "contractName": "NFT",
  "sourceName": "src/backend/contracts/NFT.sol",
  "abi": [
    {
      "inputs": [
        {
          "internalType": "string",
          "name": "_baseURI",
          "type": "string"
        }
      ],
      "stateMutability": "nonpayable",
      "type": "constructor"
    },
    {
      "inputs": [],
      "name": "ApprovalCallerNotOwnerNorApproved",
      "type": "error"
    },
    {
      "inputs": [],
      "name": "ApprovalQueryForNonexistentToken",
      "type": "error"
    },
    {
      "inputs": [],
      "name": "ApproveToCaller",
      "type": "error"
    },
    {
      "inputs": [],
      "name": "BalanceQueryForZeroAddress",
      "type": "error"
    },
    {
      "inputs": [],
      "name": "MintERC2309QuantityExceedsLimit",
      "type": "error"
    },
    {
      "inputs": [],
      "name": "MintToZeroAddress",
      "type": "error"
    },
    {
      "inputs": [],
      "name": "MintZeroQuantity",
      "type": "error"
    },
    {
      "inputs": [],
      "name": "OwnerQueryForNonexistentToken",
      "type": "error"
    },
    {
      "inputs": [],
      "name": "OwnershipNotInitializedForExtraData",
      "type": "error"
    },
    {
      "inputs": [],
      "name": "TransferCallerNotOwnerNorApproved",
      "type": "error"
    },
    {
      "inputs": [],
      "name": "TransferFromIncorrectOwner",
      "type": "error"
    },
    {
      "inputs": [],
      "name": "TransferToNonERC721ReceiverImplementer",
      "type": "error"
    },
    {
      "inputs": [],
      "name": "TransferToZeroAddress",
      "type": "error"
    },
    {
      "inputs": [],
      "name": "URIQueryForNonexistentToken",
      "type": "error"
    },
    {
      "anonymous": false,
      "inputs": [
        {
          "indexed": true,
          "internalType": "address",
          "name": "owner",
          "type": "address"
        },
        {
          "indexed": true,
          "internalType": "address",
          "name": "approved",
          "type": "address"
        },
        {
          "indexed": true,
          "internalType": "uint256",
          "name": "tokenId",
          "type": "uint256"
        }
      ],
      "name": "Approval",
      "type": "event"
    },
    {
      "anonymous": false,
      "inputs": [
        {
          "indexed": true,
          "internalType": "address",
          "name": "owner",
          "type": "address"
        },
        {
          "indexed": true,
          "internalType": "address",
          "name": "operator",
          "type": "address"
        },
        {
          "indexed": false,
          "internalType": "bool",
          "name": "approved",
          "type": "bool"
        }
      ],
      "name": "ApprovalForAll",
      "type": "event"
    },
    {
      "anonymous": false,
      "inputs": [
        {
          "indexed": true,
          "internalType": "uint256",
          "name": "fromTokenId",
          "type": "uint256"
        },
        {
          "indexed": false,
          "internalType": "uint256",
          "name": "toTokenId",
          "type": "uint256"
        },
        {
          "indexed": true,
          "internalType": "address",
          "name": "from",
          "type": "address"
        },
        {
          "indexed": true,
          "internalType": "address",
          "name": "to",
          "type": "address"
        }
      ],
      "name": "ConsecutiveTransfer",
      "type": "event"
    },
    {
      "anonymous": false,
      "inputs": [
        {
          "indexed": true,
          "internalType": "address",
          "name": "previousOwner",
          "type": "address"
        },
        {
          "indexed": true,
          "internalType": "address",
          "name": "newOwner",
          "type": "address"
        }
      ],
      "name": "OwnershipTransferred",
      "type": "event"
    },
    {
      "anonymous": false,
      "inputs": [
        {
          "indexed": true,
          "internalType": "address",
          "name": "from",
          "type": "address"
        },
        {
          "indexed": true,
          "internalType": "address",
          "name": "to",
          "type": "address"
        },
        {
          "indexed": true,
          "internalType": "uint256",
          "name": "tokenId",
          "type": "uint256"
        }
      ],
      "name": "Transfer",
      "type": "event"
    },
    {
      "inputs": [
        {
          "internalType": "address",
          "name": "to",
          "type": "address"
        },
        {
          "internalType": "uint256",
          "name": "tokenId",
          "type": "uint256"
        }
      ],
      "name": "approve",
      "outputs": [],
      "stateMutability": "nonpayable",
      "type": "function"
    },
    {
      "inputs": [
        {
          "internalType": "address",
          "name": "owner",
          "type": "address"
        }
      ],
      "name": "balanceOf",
      "outputs": [
        {
          "internalType": "uint256",
          "name": "",
          "type": "uint256"
        }
      ],
      "stateMutability": "view",
      "type": "function"
    },
    {
      "inputs": [],
      "name": "baseURI",
      "outputs": [
        {
          "internalType": "string",
          "name": "",
          "type": "string"
        }
      ],
      "stateMutability": "view",
      "type": "function"
    },
    {
      "inputs": [
        {
          "internalType": "uint256",
          "name": "tokenId",
          "type": "uint256"
        }
      ],
      "name": "getApproved",
      "outputs": [
        {
          "internalType": "address",
          "name": "",
          "type": "address"
        }
      ],
      "stateMutability": "view",
      "type": "function"
    },
    {
      "inputs": [
        {
          "internalType": "address",
          "name": "owner",
          "type": "address"
        },
        {
          "internalType": "address",
          "name": "operator",
          "type": "address"
        }
      ],
      "name": "isApprovedForAll",
      "outputs": [
        {
          "internalType": "bool",
          "name": "",
          "type": "bool"
        }
      ],
      "stateMutability": "view",
      "type": "function"
    },
    {
      "inputs": [
        {
          "internalType": "uint256",
          "name": "quantity",
          "type": "uint256"
        }
      ],
      "name": "mint",
      "outputs": [],
      "stateMutability": "payable",
      "type": "function"
    },
    {
      "inputs": [],
      "name": "name",
      "outputs": [
        {
          "internalType": "string",
          "name": "",
          "type": "string"
        }
      ],
      "stateMutability": "view",
      "type": "function"
    },
    {
      "inputs": [],
      "name": "owner",
      "outputs": [
        {
          "internalType": "address",
          "name": "",
          "type": "address"
        }
      ],
      "stateMutability": "view",
      "type": "function"
    },
    {
      "inputs": [
        {
          "internalType": "uint256",
          "name": "tokenId",
          "type": "uint256"
        }
      ],
      "name": "ownerOf",
      "outputs": [
        {
          "internalType": "address",
          "name": "",
          "type": "address"
        }
      ],
      "stateMutability": "view",
      "type": "function"
    },
    {
      "inputs": [],
      "name": "renounceOwnership",
      "outputs": [],
      "stateMutability": "nonpayable",
      "type": "function"
    },
    {
      "inputs": [
        {
          "internalType": "address",
          "name": "from",
          "type": "address"
        },
        {
          "internalType": "address",
          "name": "to",
          "type": "address"
        },
        {
          "internalType": "uint256",
          "name": "tokenId",
          "type": "uint256"
        }
      ],
      "name": "safeTransferFrom",
      "outputs": [],
      "stateMutability": "nonpayable",
      "type": "function"
    },
    {
      "inputs": [
        {
          "internalType": "address",
          "name": "from",
          "type": "address"
        },
        {
          "internalType": "address",
          "name": "to",
          "type": "address"
        },
        {
          "internalType": "uint256",
          "name": "tokenId",
          "type": "uint256"
        },
        {
          "internalType": "bytes",
          "name": "_data",
          "type": "bytes"
        }
      ],
      "name": "safeTransferFrom",
      "outputs": [],
      "stateMutability": "nonpayable",
      "type": "function"
    },
    {
      "inputs": [
        {
          "internalType": "address",
          "name": "operator",
          "type": "address"
        },
        {
          "internalType": "bool",
          "name": "approved",
          "type": "bool"
        }
      ],
      "name": "setApprovalForAll",
      "outputs": [],
      "stateMutability": "nonpayable",
      "type": "function"
    },
    {
      "inputs": [
        {
          "internalType": "bytes4",
          "name": "interfaceId",
          "type": "bytes4"
        }
      ],
      "name": "supportsInterface",
      "outputs": [
        {
          "internalType": "bool",
          "name": "",
          "type": "bool"
        }
      ],
      "stateMutability": "view",
      "type": "function"
    },
    {
      "inputs": [],
      "name": "symbol",
      "outputs": [
        {
          "internalType": "string",
          "name": "",
          "type": "string"
        }
      ],
      "stateMutability": "view",
      "type": "function"
    },
    {
      "inputs": [
        {
          "internalType": "uint256",
          "name": "_tokenId",
          "type": "uint256"
        }
      ],
      "name": "tokenURI",
      "outputs": [
        {
          "internalType": "string",
          "name": "",
          "type": "string"
        }
      ],
      "stateMutability": "view",
      "type": "function"
    },
    {
      "inputs": [],
      "name": "totalSupply",
      "outputs": [
        {
          "internalType": "uint256",
          "name": "",
          "type": "uint256"
        }
      ],
      "stateMutability": "view",
      "type": "function"
    },
    {
      "inputs": [
        {
          "internalType": "address",
          "name": "from",
          "type": "address"
        },
        {
          "internalType": "address",
          "name": "to",
          "type": "address"
        },
        {
          "internalType": "uint256",
          "name": "tokenId",
          "type": "uint256"
        }
      ],
      "name": "transferFrom",
      "outputs": [],
      "stateMutability": "nonpayable",
      "type": "function"
    },
    {
      "inputs": [
        {
          "internalType": "address",
          "name": "newOwner",
          "type": "address"
        }
      ],
      "name": "transferOwnership",
      "outputs": [],
      "stateMutability": "nonpayable",
      "type": "function"
    }
  ],
  "bytecode": "0x6080604052604051806020016040528060008152506009908162000024919062000486565b503480156200003257600080fd5b5060405162002b5f38038062002b5f8339818101604052810190620000589190620006d1565b6040518060400160405280600881526020017f54657374204e46540000000000000000000000000000000000000000000000008152506040518060400160405280600481526020017f54455354000000000000000000000000000000000000000000000000000000008152508160029081620000d5919062000486565b508060039081620000e7919062000486565b50620000f86200013960201b60201c565b600081905550505062000120620001146200013e60201b60201c565b6200014660201b60201c565b806009908162000131919062000486565b505062000722565b600090565b600033905090565b6000600860009054906101000a900473ffffffffffffffffffffffffffffffffffffffff16905081600860006101000a81548173ffffffffffffffffffffffffffffffffffffffff021916908373ffffffffffffffffffffffffffffffffffffffff1602179055508173ffffffffffffffffffffffffffffffffffffffff168173ffffffffffffffffffffffffffffffffffffffff167f8be0079c531659141344cd1fd0a4f28419497f9722a3daafe3b4186f6b6457e060405160405180910390a35050565b600081519050919050565b7f4e487b7100000000000000000000000000000000000000000000000000000000600052604160045260246000fd5b7f4e487b7100000000000000000000000000000000000000000000000000000000600052602260045260246000fd5b600060028204905060018216806200028e57607f821691505b602082108103620002a457620002a362000246565b5b50919050565b60008190508160005260206000209050919050565b60006020601f8301049050919050565b600082821b905092915050565b6000600883026200030e7fffffffffffffffffffffffffffffffffffffffffffffffffffffffffffffffff82620002cf565b6200031a8683620002cf565b95508019841693508086168417925050509392505050565b6000819050919050565b6000819050919050565b600062000367620003616200035b8462000332565b6200033c565b62000332565b9050919050565b6000819050919050565b620003838362000346565b6200039b62000392826200036e565b848454620002dc565b825550505050565b600090565b620003b2620003a3565b620003bf81848462000378565b505050565b5b81811015620003e757620003db600082620003a8565b600181019050620003c5565b5050565b601f82111562000436576200040081620002aa565b6200040b84620002bf565b810160208510156200041b578190505b620004336200042a85620002bf565b830182620003c4565b50505b505050565b600082821c905092915050565b60006200045b600019846008026200043b565b1980831691505092915050565b600062000476838362000448565b9150826002028217905092915050565b62000491826200020c565b67ffffffffffffffff811115620004ad57620004ac62000217565b5b620004b9825462000275565b620004c6828285620003eb565b600060209050601f831160018114620004fe5760008415620004e9578287015190505b620004f5858262000468565b86555062000565565b601f1984166200050e86620002aa565b60005b82811015620005385784890151825560018201915060208501945060208101905062000511565b8683101562000558578489015162000554601f89168262000448565b8355505b6001600288020188555050505b505050505050565b6000604051905090565b600080fd5b600080fd5b600080fd5b600080fd5b6000601f19601f8301169050919050565b620005a7826200058b565b810181811067ffffffffffffffff82111715620005c957620005c862000217565b5b80604052505050565b6000620005de6200056d565b9050620005ec82826200059c565b919050565b600067ffffffffffffffff8211156200060f576200060e62000217565b5b6200061a826200058b565b9050602081019050919050565b60005b83811015620006475780820151818401526020810190506200062a565b60008484015250505050565b60006200066a6200066484620005f1565b620005d2565b90508281526020810184848401111562000689576200068862000586565b5b6200069684828562000627565b509392505050565b600082601f830112620006b657620006b562000581565b5b8151620006c884826020860162000653565b91505092915050565b600060208284031215620006ea57620006e962000577565b5b600082015167ffffffffffffffff8111156200070b576200070a6200057c565b5b62000719848285016200069e565b91505092915050565b61242d80620007326000396000f3fe6080604052600436106101145760003560e01c806370a08231116100a0578063a22cb46511610064578063a22cb46514610392578063b88d4fde146103bb578063c87b56dd146103e4578063e985e9c514610421578063f2fde38b1461045e57610114565b806370a08231146102cc578063715018a6146103095780638da5cb5b1461032057806395d89b411461034b578063a0712d681461037657610114565b806318160ddd116100e757806318160ddd146101e757806323b872dd1461021257806342842e0e1461023b5780636352211e146102645780636c0360eb146102a157610114565b806301ffc9a71461011957806306fdde0314610156578063081812fc14610181578063095ea7b3146101be575b600080fd5b34801561012557600080fd5b50610140600480360381019061013b91906118b7565b610487565b60405161014d91906118ff565b60405180910390f35b34801561016257600080fd5b5061016b610519565b60405161017891906119aa565b60405180910390f35b34801561018d57600080fd5b506101a860048036038101906101a39190611a02565b6105ab565b6040516101b59190611a70565b60405180910390f35b3480156101ca57600080fd5b506101e560048036038101906101e09190611ab7565b61062a565b005b3480156101f357600080fd5b506101fc61076e565b6040516102099190611b06565b60405180910390f35b34801561021e57600080fd5b5061023960048036038101906102349190611b21565b610785565b005b34801561024757600080fd5b50610262600480360381019061025d9190611b21565b610aa7565b005b34801561027057600080fd5b5061028b60048036038101906102869190611a02565b610ac7565b6040516102989190611a70565b60405180910390f35b3480156102ad57600080fd5b506102b6610ad9565b6040516102c391906119aa565b60405180910390f35b3480156102d857600080fd5b506102f360048036038101906102ee9190611b74565b610b67565b6040516103009190611b06565b60405180910390f35b34801561031557600080fd5b5061031e610c1f565b005b34801561032c57600080fd5b50610335610c33565b6040516103429190611a70565b60405180910390f35b34801561035757600080fd5b50610360610c5d565b60405161036d91906119aa565b60405180910390f35b610390600480360381019061038b9190611a02565b610cef565b005b34801561039e57600080fd5b506103b960048036038101906103b49190611bcd565b610cfc565b005b3480156103c757600080fd5b506103e260048036038101906103dd9190611d42565b610e73565b005b3480156103f057600080fd5b5061040b60048036038101906104069190611a02565b610ee6565b60405161041891906119aa565b60405180910390f35b34801561042d57600080fd5b5061044860048036038101906104439190611dc5565b610f62565b60405161045591906118ff565b60405180910390f35b34801561046a57600080fd5b5061048560048036038101906104809190611b74565b610ff6565b005b60006301ffc9a760e01b827bffffffffffffffffffffffffffffffffffffffffffffffffffffffff191614806104e257506380ac58cd60e01b827bffffffffffffffffffffffffffffffffffffffffffffffffffffffff1916145b806105125750635b5e139f60e01b827bffffffffffffffffffffffffffffffffffffffffffffffffffffffff1916145b9050919050565b60606002805461052890611e34565b80601f016020809104026020016040519081016040528092919081815260200182805461055490611e34565b80156105a15780601f10610576576101008083540402835291602001916105a1565b820191906000526020600020905b81548152906001019060200180831161058457829003601f168201915b5050505050905090565b60006105b682611079565b6105ec576040517fcf4700e400000000000000000000000000000000000000000000000000000000815260040160405180910390fd5b6006600083815260200190815260200160002060000160009054906101000a900473ffffffffffffffffffffffffffffffffffffffff169050919050565b600061063582610ac7565b90508073ffffffffffffffffffffffffffffffffffffffff166106566110d8565b73ffffffffffffffffffffffffffffffffffffffff16146106b9576106828161067d6110d8565b610f62565b6106b8576040517fcfb3b94200000000000000000000000000000000000000000000000000000000815260040160405180910390fd5b5b826006600084815260200190815260200160002060000160006101000a81548173ffffffffffffffffffffffffffffffffffffffff021916908373ffffffffffffffffffffffffffffffffffffffff160217905550818373ffffffffffffffffffffffffffffffffffffffff168273ffffffffffffffffffffffffffffffffffffffff167f8c5be1e5ebec7d5bd14f71427d1e84f3dd0314c0f7b2291e5b200ac8c7c3b92560405160405180910390a4505050565b60006107786110e0565b6001546000540303905090565b6000610790826110e5565b90508373ffffffffffffffffffffffffffffffffffffffff168173ffffffffffffffffffffffffffffffffffffffff16146107f7576040517fa114810000000000000000000000000000000000000000000000000000000000815260040160405180910390fd5b600080610803846111b1565b9150915061081981876108146110d8565b6111d8565b6108655761082e866108296110d8565b610f62565b610864576040517f59c896be00000000000000000000000000000000000000000000000000000000815260040160405180910390fd5b5b600073ffffffffffffffffffffffffffffffffffffffff168573ffffffffffffffffffffffffffffffffffffffff16036108cb576040517fea553b3400000000000000000000000000000000000000000000000000000000815260040160405180910390fd5b6108d8868686600161121c565b80156108e357600082555b600560008773ffffffffffffffffffffffffffffffffffffffff1673ffffffffffffffffffffffffffffffffffffffff168152602001908152602001600020600081546001900391905081905550600560008673ffffffffffffffffffffffffffffffffffffffff1673ffffffffffffffffffffffffffffffffffffffff16815260200190815260200160002060008154600101919050819055506109b18561098d888887611222565b7c02000000000000000000000000000000000000000000000000000000001761124a565b600460008681526020019081526020016000208190555060007c0200000000000000000000000000000000000000000000000000000000841603610a375760006001850190506000600460008381526020019081526020016000205403610a35576000548114610a34578360046000838152602001908152602001600020819055505b5b505b838573ffffffffffffffffffffffffffffffffffffffff168773ffffffffffffffffffffffffffffffffffffffff167fddf252ad1be2c89b69c2b068fc378daa952ba7f163c4a11628f55a4df523b3ef60405160405180910390a4610a9f8686866001611275565b505050505050565b610ac283838360405180602001604052806000815250610e73565b505050565b6000610ad2826110e5565b9050919050565b60098054610ae690611e34565b80601f0160208091040260200160405190810160405280929190818152602001828054610b1290611e34565b8015610b5f5780601f10610b3457610100808354040283529160200191610b5f565b820191906000526020600020905b815481529060010190602001808311610b4257829003601f168201915b505050505081565b60008073ffffffffffffffffffffffffffffffffffffffff168273ffffffffffffffffffffffffffffffffffffffff1603610bce576040517f8f4eb60400000000000000000000000000000000000000000000000000000000815260040160405180910390fd5b67ffffffffffffffff600560008473ffffffffffffffffffffffffffffffffffffffff1673ffffffffffffffffffffffffffffffffffffffff16815260200190815260200160002054169050919050565b610c2761127b565b610c3160006112f9565b565b6000600860009054906101000a900473ffffffffffffffffffffffffffffffffffffffff16905090565b606060038054610c6c90611e34565b80601f0160208091040260200160405190810160405280929190818152602001828054610c9890611e34565b8015610ce55780601f10610cba57610100808354040283529160200191610ce5565b820191906000526020600020905b815481529060010190602001808311610cc857829003601f168201915b5050505050905090565b610cf933826113bf565b50565b610d046110d8565b73ffffffffffffffffffffffffffffffffffffffff168273ffffffffffffffffffffffffffffffffffffffff1603610d68576040517fb06307db00000000000000000000000000000000000000000000000000000000815260040160405180910390fd5b8060076000610d756110d8565b73ffffffffffffffffffffffffffffffffffffffff1673ffffffffffffffffffffffffffffffffffffffff16815260200190815260200160002060008473ffffffffffffffffffffffffffffffffffffffff1673ffffffffffffffffffffffffffffffffffffffff16815260200190815260200160002060006101000a81548160ff0219169083151502179055508173ffffffffffffffffffffffffffffffffffffffff16610e226110d8565b73ffffffffffffffffffffffffffffffffffffffff167f17307eab39ab6107e8899845ad3d59bd9653f200f220920489ca2b5937696c3183604051610e6791906118ff565b60405180910390a35050565b610e7e848484610785565b60008373ffffffffffffffffffffffffffffffffffffffff163b14610ee057610ea98484848461157a565b610edf576040517fd1a57ed600000000000000000000000000000000000000000000000000000000815260040160405180910390fd5b5b50505050565b6060610ef182611079565b610f30576040517f08c379a0000000000000000000000000000000000000000000000000000000008152600401610f2790611eb1565b60405180910390fd5b6009610f3b836116ca565b604051602001610f4c92919061203d565b6040516020818303038152906040529050919050565b6000600760008473ffffffffffffffffffffffffffffffffffffffff1673ffffffffffffffffffffffffffffffffffffffff16815260200190815260200160002060008373ffffffffffffffffffffffffffffffffffffffff1673ffffffffffffffffffffffffffffffffffffffff16815260200190815260200160002060009054906101000a900460ff16905092915050565b610ffe61127b565b600073ffffffffffffffffffffffffffffffffffffffff168173ffffffffffffffffffffffffffffffffffffffff160361106d576040517f08c379a0000000000000000000000000000000000000000000000000000000008152600401611064906120e9565b60405180910390fd5b611076816112f9565b50565b6000816110846110e0565b11158015611093575060005482105b80156110d1575060007c0100000000000000000000000000000000000000000000000000000000600460008581526020019081526020016000205416145b9050919050565b600033905090565b600090565b600080829050806110f46110e0565b1161117a576000548110156111795760006004600083815260200190815260200160002054905060007c0100000000000000000000000000000000000000000000000000000000821603611177575b6000810361116d576004600083600190039350838152602001908152602001600020549050611143565b80925050506111ac565b505b5b6040517fdf2d9b4200000000000000000000000000000000000000000000000000000000815260040160405180910390fd5b919050565b60008060006006600085815260200190815260200160002090508092508254915050915091565b600073ffffffffffffffffffffffffffffffffffffffff8316925073ffffffffffffffffffffffffffffffffffffffff821691508382148383141790509392505050565b50505050565b60008060e883901c905060e861123986868461182a565b62ffffff16901b9150509392505050565b600073ffffffffffffffffffffffffffffffffffffffff83169250814260a01b178317905092915050565b50505050565b611283611833565b73ffffffffffffffffffffffffffffffffffffffff166112a1610c33565b73ffffffffffffffffffffffffffffffffffffffff16146112f7576040517f08c379a00000000000000000000000000000000000000000000000000000000081526004016112ee90612155565b60405180910390fd5b565b6000600860009054906101000a900473ffffffffffffffffffffffffffffffffffffffff16905081600860006101000a81548173ffffffffffffffffffffffffffffffffffffffff021916908373ffffffffffffffffffffffffffffffffffffffff1602179055508173ffffffffffffffffffffffffffffffffffffffff168173ffffffffffffffffffffffffffffffffffffffff167f8be0079c531659141344cd1fd0a4f28419497f9722a3daafe3b4186f6b6457e060405160405180910390a35050565b600080549050600082036113ff576040517fb562e8dd00000000000000000000000000000000000000000000000000000000815260040160405180910390fd5b61140c600084838561121c565b600160406001901b178202600560008573ffffffffffffffffffffffffffffffffffffffff1673ffffffffffffffffffffffffffffffffffffffff16815260200190815260200160002060008282540192505081905550611483836114746000866000611222565b61147d8561183b565b1761124a565b6004600083815260200190815260200160002081905550600080838301905073ffffffffffffffffffffffffffffffffffffffff85169150828260007fddf252ad1be2c89b69c2b068fc378daa952ba7f163c4a11628f55a4df523b3ef600080a4600183015b81811461152457808360007fddf252ad1be2c89b69c2b068fc378daa952ba7f163c4a11628f55a4df523b3ef600080a46001810190506114e9565b506000820361155f576040517f2e07630000000000000000000000000000000000000000000000000000000000815260040160405180910390fd5b8060008190555050506115756000848385611275565b505050565b60008373ffffffffffffffffffffffffffffffffffffffff1663150b7a026115a06110d8565b8786866040518563ffffffff1660e01b81526004016115c294939291906121ca565b6020604051808303816000875af19250505080156115fe57506040513d601f19601f820116820180604052508101906115fb919061222b565b60015b611677573d806000811461162e576040519150601f19603f3d011682016040523d82523d6000602084013e611633565b606091505b50600081510361166f576040517fd1a57ed600000000000000000000000000000000000000000000000000000000815260040160405180910390fd5b805181602001fd5b63150b7a0260e01b7bffffffffffffffffffffffffffffffffffffffffffffffffffffffff1916817bffffffffffffffffffffffffffffffffffffffffffffffffffffffff191614915050949350505050565b606060008203611711576040518060400160405280600181526020017f30000000000000000000000000000000000000000000000000000000000000008152509050611825565b600082905060005b6000821461174357808061172c90612287565b915050600a8261173c91906122fe565b9150611719565b60008167ffffffffffffffff81111561175f5761175e611c17565b5b6040519080825280601f01601f1916602001820160405280156117915781602001600182028036833780820191505090505b5090505b6000851461181e576001826117aa919061232f565b9150600a856117b99190612363565b60306117c59190612394565b60f81b8183815181106117db576117da6123c8565b5b60200101907effffffffffffffffffffffffffffffffffffffffffffffffffffffffffffff1916908160001a905350600a8561181791906122fe565b9450611795565b8093505050505b919050565b60009392505050565b600033905090565b60006001821460e11b9050919050565b6000604051905090565b600080fd5b600080fd5b60007fffffffff0000000000000000000000000000000000000000000000000000000082169050919050565b6118948161185f565b811461189f57600080fd5b50565b6000813590506118b18161188b565b92915050565b6000602082840312156118cd576118cc611855565b5b60006118db848285016118a2565b91505092915050565b60008115159050919050565b6118f9816118e4565b82525050565b600060208201905061191460008301846118f0565b92915050565b600081519050919050565b600082825260208201905092915050565b60005b83811015611954578082015181840152602081019050611939565b60008484015250505050565b6000601f19601f8301169050919050565b600061197c8261191a565b6119868185611925565b9350611996818560208601611936565b61199f81611960565b840191505092915050565b600060208201905081810360008301526119c48184611971565b905092915050565b6000819050919050565b6119df816119cc565b81146119ea57600080fd5b50565b6000813590506119fc816119d6565b92915050565b600060208284031215611a1857611a17611855565b5b6000611a26848285016119ed565b91505092915050565b600073ffffffffffffffffffffffffffffffffffffffff82169050919050565b6000611a5a82611a2f565b9050919050565b611a6a81611a4f565b82525050565b6000602082019050611a856000830184611a61565b92915050565b611a9481611a4f565b8114611a9f57600080fd5b50565b600081359050611ab181611a8b565b92915050565b60008060408385031215611ace57611acd611855565b5b6000611adc85828601611aa2565b9250506020611aed858286016119ed565b9150509250929050565b611b00816119cc565b82525050565b6000602082019050611b1b6000830184611af7565b92915050565b600080600060608486031215611b3a57611b39611855565b5b6000611b4886828701611aa2565b9350506020611b5986828701611aa2565b9250506040611b6a868287016119ed565b9150509250925092565b600060208284031215611b8a57611b89611855565b5b6000611b9884828501611aa2565b91505092915050565b611baa816118e4565b8114611bb557600080fd5b50565b600081359050611bc781611ba1565b92915050565b60008060408385031215611be457611be3611855565b5b6000611bf285828601611aa2565b9250506020611c0385828601611bb8565b9150509250929050565b600080fd5b600080fd5b7f4e487b7100000000000000000000000000000000000000000000000000000000600052604160045260246000fd5b611c4f82611960565b810181811067ffffffffffffffff82111715611c6e57611c6d611c17565b5b80604052505050565b6000611c8161184b565b9050611c8d8282611c46565b919050565b600067ffffffffffffffff821115611cad57611cac611c17565b5b611cb682611960565b9050602081019050919050565b82818337600083830152505050565b6000611ce5611ce084611c92565b611c77565b905082815260208101848484011115611d0157611d00611c12565b5b611d0c848285611cc3565b509392505050565b600082601f830112611d2957611d28611c0d565b5b8135611d39848260208601611cd2565b91505092915050565b60008060008060808587031215611d5c57611d5b611855565b5b6000611d6a87828801611aa2565b9450506020611d7b87828801611aa2565b9350506040611d8c878288016119ed565b925050606085013567ffffffffffffffff811115611dad57611dac61185a565b5b611db987828801611d14565b91505092959194509250565b60008060408385031215611ddc57611ddb611855565b5b6000611dea85828601611aa2565b9250506020611dfb85828601611aa2565b9150509250929050565b7f4e487b7100000000000000000000000000000000000000000000000000000000600052602260045260246000fd5b60006002820490506001821680611e4c57607f821691505b602082108103611e5f57611e5e611e05565b5b50919050565b7f546f6b656e206e6f6e206578697374656e740000000000000000000000000000600082015250565b6000611e9b601283611925565b9150611ea682611e65565b602082019050919050565b60006020820190508181036000830152611eca81611e8e565b9050919050565b600081905092915050565b60008190508160005260206000209050919050565b60008154611efe81611e34565b611f088186611ed1565b94506001821660008114611f235760018114611f3857611f6b565b60ff1983168652811515820286019350611f6b565b611f4185611edc565b60005b83811015611f6357815481890152600182019150602081019050611f44565b838801955050505b50505092915050565b7f2f00000000000000000000000000000000000000000000000000000000000000600082015250565b6000611faa600183611ed1565b9150611fb582611f74565b600182019050919050565b6000611fcb8261191a565b611fd58185611ed1565b9350611fe5818560208601611936565b80840191505092915050565b7f2e6a736f6e000000000000000000000000000000000000000000000000000000600082015250565b6000612027600583611ed1565b915061203282611ff1565b600582019050919050565b60006120498285611ef1565b915061205482611f9d565b91506120608284611fc0565b915061206b8261201a565b91508190509392505050565b7f4f776e61626c653a206e6577206f776e657220697320746865207a65726f206160008201527f6464726573730000000000000000000000000000000000000000000000000000602082015250565b60006120d3602683611925565b91506120de82612077565b604082019050919050565b60006020820190508181036000830152612102816120c6565b9050919050565b7f4f776e61626c653a2063616c6c6572206973206e6f7420746865206f776e6572600082015250565b600061213f602083611925565b915061214a82612109565b602082019050919050565b6000602082019050818103600083015261216e81612132565b9050919050565b600081519050919050565b600082825260208201905092915050565b600061219c82612175565b6121a68185612180565b93506121b6818560208601611936565b6121bf81611960565b840191505092915050565b60006080820190506121df6000830187611a61565b6121ec6020830186611a61565b6121f96040830185611af7565b818103606083015261220b8184612191565b905095945050505050565b6000815190506122258161188b565b92915050565b60006020828403121561224157612240611855565b5b600061224f84828501612216565b91505092915050565b7f4e487b7100000000000000000000000000000000000000000000000000000000600052601160045260246000fd5b6000612292826119cc565b91507fffffffffffffffffffffffffffffffffffffffffffffffffffffffffffffffff82036122c4576122c3612258565b5b600182019050919050565b7f4e487b7100000000000000000000000000000000000000000000000000000000600052601260045260246000fd5b6000612309826119cc565b9150612314836119cc565b925082612324576123236122cf565b5b828204905092915050565b600061233a826119cc565b9150612345836119cc565b925082820390508181111561235d5761235c612258565b5b92915050565b600061236e826119cc565b9150612379836119cc565b925082612389576123886122cf565b5b828206905092915050565b600061239f826119cc565b91506123aa836119cc565b92508282019050808211156123c2576123c1612258565b5b92915050565b7f4e487b7100000000000000000000000000000000000000000000000000000000600052603260045260246000fdfea2646970667358221220cb5fe1ba99564cd5d566f73d857b5960f5859b8dc88c889d5fe672ace1cdbae464736f6c63430008110033",
  "linkReferences": {},
  "deployedLinkReferences": {}
}