{
  "_format": "hh-sol-artifact-1",
  "contractName": "Marketplace",
  "sourceName": "src/backend/contracts/Marketplace.sol",
  "abi": [
    {
      "inputs": [
        {
          "internalType": "uint256",
          "name": "_feePercent",
          "type": "uint256"
        }
      ],
      "stateMutability": "nonpayable",
      "type": "constructor"
    },
    {
      "anonymous": false,
      "inputs": [
        {
          "indexed": false,
          "internalType": "uint256",
          "name": "itemId",
          "type": "uint256"
        },
        {
          "indexed": true,
          "internalType": "address",
          "name": "nft",
          "type": "address"
        },
        {
          "indexed": false,
          "internalType": "uint256",
          "name": "tokenId",
          "type": "uint256"
        },
        {
          "indexed": false,
          "internalType": "uint256",
          "name": "price",
          "type": "uint256"
        },
        {
          "indexed": true,
          "internalType": "address",
          "name": "seller",
          "type": "address"
        }
      ],
      "name": "Offered",
      "type": "event"
    },
    {
      "inputs": [],
      "name": "feeAccount",
      "outputs": [
        {
          "internalType": "address payable",
          "name": "",
          "type": "address"
        }
      ],
      "stateMutability": "view",
      "type": "function"
    },
    {
      "inputs": [],
      "name": "feePercent",
      "outputs": [
        {
          "internalType": "uint256",
          "name": "",
          "type": "uint256"
        }
      ],
      "stateMutability": "view",
      "type": "function"
    },
    {
      "inputs": [],
      "name": "itemCount",
      "outputs": [
        {
          "internalType": "uint256",
          "name": "",
          "type": "uint256"
        }
      ],
      "stateMutability": "view",
      "type": "function"
    },
    {
      "inputs": [
        {
          "internalType": "uint256",
          "name": "",
          "type": "uint256"
        }
      ],
      "name": "items",
      "outputs": [
        {
          "internalType": "uint256",
          "name": "itemId",
          "type": "uint256"
        },
        {
          "internalType": "uint256",
          "name": "tokenId",
          "type": "uint256"
        },
        {
          "internalType": "uint256",
          "name": "price",
          "type": "uint256"
        },
        {
          "internalType": "address payable",
          "name": "seller",
          "type": "address"
        },
        {
          "internalType": "bool",
          "name": "sold",
          "type": "bool"
        },
        {
          "internalType": "contract IERC721",
          "name": "nft",
          "type": "address"
        }
      ],
      "stateMutability": "view",
      "type": "function"
    },
    {
      "inputs": [
        {
          "internalType": "contract IERC721",
          "name": "_nft",
          "type": "address"
        },
        {
          "internalType": "uint256",
          "name": "_tokenId",
          "type": "uint256"
        },
        {
          "internalType": "uint256",
          "name": "_price",
          "type": "uint256"
        }
      ],
      "name": "makeItem",
      "outputs": [],
      "stateMutability": "nonpayable",
      "type": "function"
    }
  ],
  "bytecode": "0x60c060405234801561001057600080fd5b50604051610a8c380380610a8c833981810160405281019061003291906100b7565b60016000819055503373ffffffffffffffffffffffffffffffffffffffff1660808173ffffffffffffffffffffffffffffffffffffffff16815250508060a08181525050506100e4565b600080fd5b6000819050919050565b61009481610081565b811461009f57600080fd5b50565b6000815190506100b18161008b565b92915050565b6000602082840312156100cd576100cc61007c565b5b60006100db848285016100a2565b91505092915050565b60805160a05161098361010960003960006101330152600061010901526109836000f3fe608060405234801561001057600080fd5b50600436106100575760003560e01c806365e17c9d1461005c5780636bfb0d011461007a5780637fd6f15c14610098578063bfb231d2146100b6578063fa00afc7146100eb575b600080fd5b610064610107565b6040516100719190610511565b60405180910390f35b61008261012b565b60405161008f9190610545565b60405180910390f35b6100a0610131565b6040516100ad9190610545565b60405180910390f35b6100d060048036038101906100cb9190610591565b610155565b6040516100e296959493929190610638565b60405180910390f35b610105600480360381019061010091906106e9565b6101de565b005b7f000000000000000000000000000000000000000000000000000000000000000081565b60015481565b7f000000000000000000000000000000000000000000000000000000000000000081565b60026020528060005260406000206000915090508060000154908060010154908060020154908060030160009054906101000a900473ffffffffffffffffffffffffffffffffffffffff16908060030160149054906101000a900460ff16908060040160009054906101000a900473ffffffffffffffffffffffffffffffffffffffff16905086565b600260005403610223576040517f08c379a000000000000000000000000000000000000000000000000000000000815260040161021a90610799565b60405180910390fd5b60026000819055506000811161026e576040517f08c379a000000000000000000000000000000000000000000000000000000000815260040161026590610805565b60405180910390fd5b8273ffffffffffffffffffffffffffffffffffffffff166323b872dd3330856040518463ffffffff1660e01b81526004016102ab93929190610834565b600060405180830381600087803b1580156102c557600080fd5b505af11580156102d9573d6000803e3d6000fd5b50505050600160008154809291906102f09061089a565b91905055506040518060c001604052806001805461030e91906108e2565b81526020018381526020018281526020013373ffffffffffffffffffffffffffffffffffffffff1681526020016000151581526020018473ffffffffffffffffffffffffffffffffffffffff16815250600260006001805461037091906108e2565b815260200190815260200160002060008201518160000155602082015181600101556040820151816002015560608201518160030160006101000a81548173ffffffffffffffffffffffffffffffffffffffff021916908373ffffffffffffffffffffffffffffffffffffffff16021790555060808201518160030160146101000a81548160ff02191690831515021790555060a08201518160040160006101000a81548173ffffffffffffffffffffffffffffffffffffffff021916908373ffffffffffffffffffffffffffffffffffffffff1602179055509050503373ffffffffffffffffffffffffffffffffffffffff168373ffffffffffffffffffffffffffffffffffffffff167f655a0cf9c8db81512be9a76dc1c5ae5380b8816ce6ad659cd61b715e2999d59a600180546104aa91906108e2565b85856040516104bb93929190610916565b60405180910390a36001600081905550505050565b600073ffffffffffffffffffffffffffffffffffffffff82169050919050565b60006104fb826104d0565b9050919050565b61050b816104f0565b82525050565b60006020820190506105266000830184610502565b92915050565b6000819050919050565b61053f8161052c565b82525050565b600060208201905061055a6000830184610536565b92915050565b600080fd5b61056e8161052c565b811461057957600080fd5b50565b60008135905061058b81610565565b92915050565b6000602082840312156105a7576105a6610560565b5b60006105b58482850161057c565b91505092915050565b60008115159050919050565b6105d3816105be565b82525050565b6000819050919050565b60006105fe6105f96105f4846104d0565b6105d9565b6104d0565b9050919050565b6000610610826105e3565b9050919050565b600061062282610605565b9050919050565b61063281610617565b82525050565b600060c08201905061064d6000830189610536565b61065a6020830188610536565b6106676040830187610536565b6106746060830186610502565b61068160808301856105ca565b61068e60a0830184610629565b979650505050505050565b60006106a4826104d0565b9050919050565b60006106b682610699565b9050919050565b6106c6816106ab565b81146106d157600080fd5b50565b6000813590506106e3816106bd565b92915050565b60008060006060848603121561070257610701610560565b5b6000610710868287016106d4565b93505060206107218682870161057c565b92505060406107328682870161057c565b9150509250925092565b600082825260208201905092915050565b7f5265656e7472616e637947756172643a207265656e7472616e742063616c6c00600082015250565b6000610783601f8361073c565b915061078e8261074d565b602082019050919050565b600060208201905081810360008301526107b281610776565b9050919050565b7f5072696365206d7573742062652067726561746572207468616e207a65726f00600082015250565b60006107ef601f8361073c565b91506107fa826107b9565b602082019050919050565b6000602082019050818103600083015261081e816107e2565b9050919050565b61082e81610699565b82525050565b60006060820190506108496000830186610825565b6108566020830185610825565b6108636040830184610536565b949350505050565b7f4e487b7100000000000000000000000000000000000000000000000000000000600052601160045260246000fd5b60006108a58261052c565b91507fffffffffffffffffffffffffffffffffffffffffffffffffffffffffffffffff82036108d7576108d661086b565b5b600182019050919050565b60006108ed8261052c565b91506108f88361052c565b92508282039050818111156109105761090f61086b565b5b92915050565b600060608201905061092b6000830186610536565b6109386020830185610536565b6109456040830184610536565b94935050505056fea2646970667358221220d078aacb6a23dff82a0eb6db730250167c4b23c87b94b6a86331b0f978f5599664736f6c63430008110033",
  "linkReferences": {},
  "deployedLinkReferences": {}
}